:100000000C942A000C9434000C9434000C943400AA
:100010000C9434000C9434000C9434000C94340090
:100020000C9434000C9434000C9434000C94340080
:100030000C9434000C9434000C9434000C94340070
:100040000C9434000C9434000C9434000C94340060
:100050000C94340011241FBECFE5D8E0DEBFCDBF25
:100060000E9436000C9458000C94000081B3836009
:1000700081BB0E9450000E945400823749F018F45E
:10008000873641F0F8CF883739F0893739F0F3CF28
:10009000909AF1CF9098EFCF919AEDCF9198EBCFC6
:1000A0008DB183648DB90895779BFECF8FB108958C
:0400B000F894FFCFF2
:00000001FF
