S01A0000414D49545F66696E616C5F70726F6A6563742E7372656320
S11300000C942A000C9434000C9434000C943400A6
S11300100C9434000C9434000C9434000C9434008C
S11300200C9434000C9434000C9434000C9434007C
S11300300C9434000C9434000C9434000C9434006C
S11300400C9434000C9434000C9434000C9434005C
S11300500C94340011241FBECFE5D8E0DEBFCDBF21
S11300600E9436000C9459000C94000087B3806BF6
S113007087BBBE980E944F000E9443000E94550017
S11300800E944B00FBCF6C9A87B3806B87BB8DB10A
S113009083648DB908958FB9779BFECF08958AB193
S11300A088618AB987E689B908955F9BFECF8CB1D0
S10900B00895F894FFCF4F
S9030000FC
